{"project/contracts/VeyraRegistry.sol":{"VeyraRegistry":{"abi":[{"inputs":[{"internalType":"string","name":"_projectName","type":"string"},{"internalType":"string","name":"_demoUrl","type":"string"},{"internalType":"string","name":"_repositoryUrl","type":"string"},{"internalType":"string","name":"_networkName","type":"string"}],"stateMutability":"nonpayable","type":"constructor"},{"anonymous":false,"inputs":[{"indexed":true,"internalType":"address","name":"builder","type":"address"},{"indexed":false,"internalType":"string","name":"projectName","type":"string"},{"indexed":false,"internalType":"string","name":"demoUrl","type":"string"},{"indexed":false,"internalType":"string","name":"repositoryUrl","type":"string"},{"indexed":false,"internalType":"string","name":"networkName","type":"string"},{"indexed":false,"internalType":"uint256","name":"deployedAt","type":"uint256"}],"name":"VeyraRegistered","type":"event"},{"inputs":[],"name":"builder","outputs":[{"internalType":"address","name":"","type":"address"}],"stateMutability":"view","type":"function"},{"inputs":[],"name":"demoUrl","outputs":[{"internalType":"string","name":"","type":"string"}],"stateMutability":"view","type":"function"},{"inputs":[],"name":"deployedAt","outputs":[{"internalType":"uint256","name":"","type":"uint256"}],"stateMutability":"view","type":"function"},{"inputs":[],"name":"networkName","outputs":[{"internalType":"string","name":"","type":"string"}],"stateMutability":"view","type":"function"},{"inputs":[],"name":"projectName","outputs":[{"internalType":"string","name":"","type":"string"}],"stateMutability":"view","type":"function"},{"inputs":[],"name":"repositoryUrl","outputs":[{"internalType":"string","name":"","type":"string"}],"stateMutability":"view","type":"function"}],"evm":{"bytecode":{"linkReferences":{},"object":"60a060405234801561000f575f5ffd5b5060405161063438038061063483398101604081905261002e91610152565b336080525f61003d8582610291565b50600161004a8482610291565b5060026100578382610291565b5060036100648282610291565b5042600481905560405133917fceb8dced29853107455ec6f9a759a74881c3c3d622f76123f81366e117286b3a916100a491889188918891889190610379565b60405180910390a2505050506103d8565b634e487b7160e01b5f52604160045260245ffd5b5f82601f8301126100d8575f5ffd5b81516001600160401b038111156100f1576100f16100b5565b604051601f8201601f19908116603f011681016001600160401b038111828210171561011f5761011f6100b5565b604052818152838201602001851015610136575f5ffd5b8160208501602083015e5f918101602001919091529392505050565b5f5f5f5f60808587031215610165575f5ffd5b84516001600160401b0381111561017a575f5ffd5b610186878288016100c9565b602087015190955090506001600160401b038111156101a3575f5ffd5b6101af878288016100c9565b604087015190945090506001600160401b038111156101cc575f5ffd5b6101d8878288016100c9565b606087015190935090506001600160401b038111156101f5575f5ffd5b610201878288016100c9565b91505092959194509250565b600181811c9082168061022157607f821691505b60208210810361023f57634e487b7160e01b5f52602260045260245ffd5b50919050565b601f82111561028c57805f5260205f20601f840160051c8101602085101561026a5750805b601f840160051c820191505b81811015610289575f8155600101610276565b50505b505050565b81516001600160401b038111156102aa576102aa6100b5565b6102be816102b8845461020d565b84610245565b6020601f8211600181146102f0575f83156102d95750848201515b5f19600385901b1c1916600184901b178455610289565b5f84815260208120601f198516915b8281101561031f57878501518255602094850194600190920191016102ff565b508482101561033c57868401515f19600387901b60f8161c191681555b50505050600190811b01905550565b5f81518084528060208401602086015e5f602082860101526020601f19601f83011685010191505092915050565b60a081525f61038b60a083018861034b565b828103602084015261039d818861034b565b905082810360408401526103b1818761034b565b905082810360608401526103c5818661034b565b9150508260808301529695505050505050565b6080516102456103ef5f395f609f01526102455ff3fe608060405234801561000f575f5ffd5b5060043610610060575f3560e01c8063107bf28c146100645780639a33e30014610082578063c395f8571461008a578063d002b55c14610092578063d7e84fbf1461009a578063eae4c19f146100d9575b5f5ffd5b61006c6100f0565b60405161007991906101a2565b60405180910390f35b61006c61017c565b61006c610188565b61006c610195565b6100c17f000000000000000000000000000000000000000000000000000000000000000081565b6040516001600160a01b039091168152602001610079565b6100e260045481565b604051908152602001610079565b600380546100fd906101d7565b80601f0160208091040260200160405190810160405280929190818152602001828054610129906101d7565b80156101745780601f1061014b57610100808354040283529160200191610174565b820191905f5260205f20905b81548152906001019060200180831161015757829003601f168201915b505050505081565b5f80546100fd906101d7565b600280546100fd906101d7565b600180546100fd906101d7565b602081525f82518060208401528060208501604085015e5f604082850101526040601f19601f83011684010191505092915050565b600181811c908216806101eb57607f821691505b60208210810361020957634e487b7160e01b5f52602260045260245ffd5b5091905056fea2646970667358221220f2686576eaf51ea2a2511e46d2a11584e2eede8b3a41cc82fd14f01b8af6c77564736f6c634300081c0033","opcodes":"PUSH1 0xA0 PUSH1 0x40 MSTORE CALLVALUE DUP1 ISZERO PUSH2 0xF JUMPI PUSH0 PUSH0 REVERT JUMPDEST POP PUSH1 0x40 MLOAD PUSH2 0x634 CODESIZE SUB DUP1 PUSH2 0x634 DUP4 CODECOPY DUP2 ADD PUSH1 0x40 DUP2 SWAP1 MSTORE PUSH2 0x2E SWAP2 PUSH2 0x152 JUMP JUMPDEST CALLER PUSH1 0x80 MSTORE PUSH0 PUSH2 0x3D DUP6 DUP3 PUSH2 0x291 JUMP JUMPDEST POP PUSH1 0x1 PUSH2 0x4A DUP5 DUP3 PUSH2 0x291 JUMP JUMPDEST POP PUSH1 0x2 PUSH2 0x57 DUP4 DUP3 PUSH2 0x291 JUMP JUMPDEST POP PUSH1 0x3 PUSH2 0x64 DUP3 DUP3 PUSH2 0x291 JUMP JUMPDEST POP TIMESTAMP PUSH1 0x4 DUP2 SWAP1 SSTORE PUSH1 0x40 MLOAD CALLER SWAP2 PUSH32 0xCEB8DCED29853107455EC6F9A759A74881C3C3D622F76123F81366E117286B3A SWAP2 PUSH2 0xA4 SWAP2 DUP9 SWAP2 DUP9 SWAP2 DUP9 SWAP2 DUP9 SWAP2 SWAP1 PUSH2 0x379 JUMP JUMPDEST PUSH1 0x40 MLOAD DUP1 SWAP2 SUB SWAP1 LOG2 POP POP POP POP PUSH2 0x3D8 JUMP JUMPDEST PUSH4 0x4E487B71 PUSH1 0xE0 SHL PUSH0 MSTORE PUSH1 0x41 PUSH1 0x4 MSTORE PUSH1 0x24 PUSH0 REVERT JUMPDEST PUSH0 DUP3 PUSH1 0x1F DUP4 ADD SLT PUSH2 0xD8 JUMPI PUSH0 PUSH0 REVERT JUMPDEST DUP2 MLOAD PUSH1 0x1 PUSH1 0x1 PUSH1 0x40 SHL SUB DUP2 GT ISZERO PUSH2 0xF1 JUMPI PUSH2 0xF1 PUSH2 0xB5 JUMP JUMPDEST PUSH1 0x40 MLOAD PUSH1 0x1F DUP3 ADD PUSH1 0x1F NOT SWAP1 DUP2 AND PUSH1 0x3F ADD AND DUP2 ADD PUSH1 0x1 PUSH1 0x1 PUSH1 0x40 SHL SUB DUP2 GT DUP3 DUP3 LT OR ISZERO PUSH2 0x11F JUMPI PUSH2 0x11F PUSH2 0xB5 JUMP JUMPDEST PUSH1 0x40 MSTORE DUP2 DUP2 MSTORE DUP4 DUP3 ADD PUSH1 0x20 ADD DUP6 LT ISZERO PUSH2 0x136 JUMPI PUSH0 PUSH0 REVERT JUMPDEST DUP2 PUSH1 0x20 DUP6 ADD PUSH1 0x20 DUP4 ADD MCOPY PUSH0 SWAP2 DUP2 ADD PUSH1 0x20 ADD SWAP2 SWAP1 SWAP2 MSTORE SWAP4 SWAP3 POP POP POP JUMP JUMPDEST PUSH0 PUSH0 PUSH0 PUSH0 PUSH1 0x80 DUP6 DUP8 SUB SLT ISZERO PUSH2 0x165 JUMPI PUSH0 PUSH0 REVERT JUMPDEST DUP5 MLOAD PUSH1 0x1 PUSH1 0x1 PUSH1 0x40 SHL SUB DUP2 GT ISZERO PUSH2 0x17A JUMPI PUSH0 PUSH0 REVERT JUMPDEST PUSH2 0x186 DUP8 DUP3 DUP9 ADD PUSH2 0xC9 JUMP JUMPDEST PUSH1 0x20 DUP8 ADD MLOAD SWAP1 SWAP6 POP SWAP1 POP PUSH1 0x1 PUSH1 0x1 PUSH1 0x40 SHL SUB DUP2 GT ISZERO PUSH2 0x1A3 JUMPI PUSH0 PUSH0 REVERT JUMPDEST PUSH2 0x1AF DUP8 DUP3 DUP9 ADD PUSH2 0xC9 JUMP JUMPDEST PUSH1 0x40 DUP8 ADD MLOAD SWAP1 SWAP5 POP SWAP1 POP PUSH1 0x1 PUSH1 0x1 PUSH1 0x40 SHL SUB DUP2 GT ISZERO PUSH2 0x1CC JUMPI PUSH0 PUSH0 REVERT JUMPDEST PUSH2 0x1D8 DUP8 DUP3 DUP9 ADD PUSH2 0xC9 JUMP JUMPDEST PUSH1 0x60 DUP8 ADD MLOAD SWAP1 SWAP4 POP SWAP1 POP PUSH1 0x1 PUSH1 0x1 PUSH1 0x40 SHL SUB DUP2 GT ISZERO PUSH2 0x1F5 JUMPI PUSH0 PUSH0 REVERT JUMPDEST PUSH2 0x201 DUP8 DUP3 DUP9 ADD PUSH2 0xC9 JUMP JUMPDEST SWAP2 POP POP SWAP3 SWAP6 SWAP2 SWAP5 POP SWAP3 POP JUMP JUMPDEST PUSH1 0x1 DUP2 DUP2 SHR SWAP1 DUP3 AND DUP1 PUSH2 0x221 JUMPI PUSH1 0x7F DUP3 AND SWAP2 POP JUMPDEST PUSH1 0x20 DUP3 LT DUP2 SUB PUSH2 0x23F JUMPI PUSH4 0x4E487B71 PUSH1 0xE0 SHL PUSH0 MSTORE PUSH1 0x22 PUSH1 0x4 MSTORE PUSH1 0x24 PUSH0 REVERT JUMPDEST POP SWAP2 SWAP1 POP JUMP JUMPDEST PUSH1 0x1F DUP3 GT ISZERO PUSH2 0x28C JUMPI DUP1 PUSH0 MSTORE PUSH1 0x20 PUSH0 KECCAK256 PUSH1 0x1F DUP5 ADD PUSH1 0x5 SHR DUP2 ADD PUSH1 0x20 DUP6 LT ISZERO PUSH2 0x26A JUMPI POP DUP1 JUMPDEST PUSH1 0x1F DUP5 ADD PUSH1 0x5 SHR DUP3 ADD SWAP2 POP JUMPDEST DUP2 DUP2 LT ISZERO PUSH2 0x289 JUMPI PUSH0 DUP2 SSTORE PUSH1 0x1 ADD PUSH2 0x276 JUMP JUMPDEST POP POP JUMPDEST POP POP POP JUMP JUMPDEST DUP2 MLOAD PUSH1 0x1 PUSH1 0x1 PUSH1 0x40 SHL SUB DUP2 GT ISZERO PUSH2 0x2AA JUMPI PUSH2 0x2AA PUSH2 0xB5 JUMP JUMPDEST PUSH2 0x2BE DUP2 PUSH2 0x2B8 DUP5 SLOAD PUSH2 0x20D JUMP JUMPDEST DUP5 PUSH2 0x245 JUMP JUMPDEST PUSH1 0x20 PUSH1 0x1F DUP3 GT PUSH1 0x1 DUP2 EQ PUSH2 0x2F0 JUMPI PUSH0 DUP4 ISZERO PUSH2 0x2D9 JUMPI POP DUP5 DUP3 ADD MLOAD JUMPDEST PUSH0 NOT PUSH1 0x3 DUP6 SWAP1 SHL SHR NOT AND PUSH1 0x1 DUP5 SWAP1 SHL OR DUP5 SSTORE PUSH2 0x289 JUMP JUMPDEST PUSH0 DUP5 DUP2 MSTORE PUSH1 0x20 DUP2 KECCAK256 PUSH1 0x1F NOT DUP6 AND SWAP2 JUMPDEST DUP3 DUP2 LT ISZERO PUSH2 0x31F JUMPI DUP8 DUP6 ADD MLOAD DUP3 SSTORE PUSH1 0x20 SWAP5 DUP6 ADD SWAP5 PUSH1 0x1 SWAP1 SWAP3 ADD SWAP2 ADD PUSH2 0x2FF JUMP JUMPDEST POP DUP5 DUP3 LT ISZERO PUSH2 0x33C JUMPI DUP7 DUP5 ADD MLOAD PUSH0 NOT PUSH1 0x3 DUP8 SWAP1 SHL PUSH1 0xF8 AND SHR NOT AND DUP2 SSTORE JUMPDEST POP POP POP POP PUSH1 0x1 SWAP1 DUP2 SHL ADD SWAP1 SSTORE POP JUMP JUMPDEST PUSH0 DUP2 MLOAD DUP1 DUP5 MSTORE DUP1 PUSH1 0x20 DUP5 ADD PUSH1 0x20 DUP7 ADD MCOPY PUSH0 PUSH1 0x20 DUP3 DUP7 ADD ADD MSTORE PUSH1 0x20 PUSH1 0x1F NOT PUSH1 0x1F DUP4 ADD AND DUP6 ADD ADD SWAP2 POP POP SWAP3 SWAP2 POP POP JUMP JUMPDEST PUSH1 0xA0 DUP2 MSTORE PUSH0 PUSH2 0x38B PUSH1 0xA0 DUP4 ADD DUP9 PUSH2 0x34B JUMP JUMPDEST DUP3 DUP2 SUB PUSH1 0x20 DUP5 ADD MSTORE PUSH2 0x39D DUP2 DUP9 PUSH2 0x34B JUMP JUMPDEST SWAP1 POP DUP3 DUP2 SUB PUSH1 0x40 DUP5 ADD MSTORE PUSH2 0x3B1 DUP2 DUP8 PUSH2 0x34B JUMP JUMPDEST SWAP1 POP DUP3 DUP2 SUB PUSH1 0x60 DUP5 ADD MSTORE PUSH2 0x3C5 DUP2 DUP7 PUSH2 0x34B JUMP JUMPDEST SWAP2 POP POP DUP3 PUSH1 0x80 DUP4 ADD MSTORE SWAP7 SWAP6 POP POP POP POP POP POP JUMP JUMPDEST PUSH1 0x80 MLOAD PUSH2 0x245 PUSH2 0x3EF PUSH0 CODECOPY PUSH0 PUSH1 0x9F ADD MSTORE PUSH2 0x245 PUSH0 RETURN INVALID PUSH1 0x80 PUSH1 0x40 MSTORE CALLVALUE DUP1 ISZERO PUSH2 0xF JUMPI PUSH0 PUSH0 REVERT JUMPDEST POP PUSH1 0x4 CALLDATASIZE LT PUSH2 0x60 JUMPI PUSH0 CALLDATALOAD PUSH1 0xE0 SHR DUP1 PUSH4 0x107BF28C EQ PUSH2 0x64 JUMPI DUP1 PUSH4 0x9A33E300 EQ PUSH2 0x82 JUMPI DUP1 PUSH4 0xC395F857 EQ PUSH2 0x8A JUMPI DUP1 PUSH4 0xD002B55C EQ PUSH2 0x92 JUMPI DUP1 PUSH4 0xD7E84FBF EQ PUSH2 0x9A JUMPI DUP1 PUSH4 0xEAE4C19F EQ PUSH2 0xD9 JUMPI JUMPDEST PUSH0 PUSH0 REVERT JUMPDEST PUSH2 0x6C PUSH2 0xF0 JUMP JUMPDEST PUSH1 0x40 MLOAD PUSH2 0x79 SWAP2 SWAP1 PUSH2 0x1A2 JUMP JUMPDEST PUSH1 0x40 MLOAD DUP1 SWAP2 SUB SWAP1 RETURN JUMPDEST PUSH2 0x6C PUSH2 0x17C JUMP JUMPDEST PUSH2 0x6C PUSH2 0x188 JUMP JUMPDEST PUSH2 0x6C PUSH2 0x195 JUMP JUMPDEST PUSH2 0xC1 PUSH32 0x0 DUP2 JUMP JUMPDEST PUSH1 0x40 MLOAD PUSH1 0x1 PUSH1 0x1 PUSH1 0xA0 SHL SUB SWAP1 SWAP2 AND DUP2 MSTORE PUSH1 0x20 ADD PUSH2 0x79 JUMP JUMPDEST PUSH2 0xE2 PUSH1 0x4 SLOAD DUP2 JUMP JUMPDEST PUSH1 0x40 MLOAD SWAP1 DUP2 MSTORE PUSH1 0x20 ADD PUSH2 0x79 JUMP JUMPDEST PUSH1 0x3 DUP1 SLOAD PUSH2 0xFD SWAP1 PUSH2 0x1D7 JUMP JUMPDEST DUP1 PUSH1 0x1F ADD PUSH1 0x20 DUP1 SWAP2 DIV MUL PUSH1 0x20 ADD PUSH1 0x40 MLOAD SWAP1 DUP2 ADD PUSH1 0x40 MSTORE DUP1 SWAP3 SWAP2 SWAP1 DUP2 DUP2 MSTORE PUSH1 0x20 ADD DUP3 DUP1 SLOAD PUSH2 0x129 SWAP1 PUSH2 0x1D7 JUMP JUMPDEST DUP1 ISZERO PUSH2 0x174 JUMPI DUP1 PUSH1 0x1F LT PUSH2 0x14B JUMPI PUSH2 0x100 DUP1 DUP4 SLOAD DIV MUL DUP4 MSTORE SWAP2 PUSH1 0x20 ADD SWAP2 PUSH2 0x174 JUMP JUMPDEST DUP3 ADD SWAP2 SWAP1 PUSH0 MSTORE PUSH1 0x20 PUSH0 KECCAK256 SWAP1 JUMPDEST DUP2 SLOAD DUP2 MSTORE SWAP1 PUSH1 0x1 ADD SWAP1 PUSH1 0x20 ADD DUP1 DUP4 GT PUSH2 0x157 JUMPI DUP3 SWAP1 SUB PUSH1 0x1F AND DUP3 ADD SWAP2 JUMPDEST POP POP POP POP POP DUP2 JUMP JUMPDEST PUSH0 DUP1 SLOAD PUSH2 0xFD SWAP1 PUSH2 0x1D7 JUMP JUMPDEST PUSH1 0x2 DUP1 SLOAD PUSH2 0xFD SWAP1 PUSH2 0x1D7 JUMP JUMPDEST PUSH1 0x1 DUP1 SLOAD PUSH2 0xFD SWAP1 PUSH2 0x1D7 JUMP JUMPDEST PUSH1 0x20 DUP2 MSTORE PUSH0 DUP3 MLOAD DUP1 PUSH1 0x20 DUP5 ADD MSTORE DUP1 PUSH1 0x20 DUP6 ADD PUSH1 0x40 DUP6 ADD MCOPY PUSH0 PUSH1 0x40 DUP3 DUP6 ADD ADD MSTORE PUSH1 0x40 PUSH1 0x1F NOT PUSH1 0x1F DUP4 ADD AND DUP5 ADD ADD SWAP2 POP POP SWAP3 SWAP2 POP POP JUMP JUMPDEST PUSH1 0x1 DUP2 DUP2 SHR SWAP1 DUP3 AND DUP1 PUSH2 0x1EB JUMPI PUSH1 0x7F DUP3 AND SWAP2 POP JUMPDEST PUSH1 0x20 DUP3 LT DUP2 SUB PUSH2 0x209 JUMPI PUSH4 0x4E487B71 PUSH1 0xE0 SHL PUSH0 MSTORE PUSH1 0x22 PUSH1 0x4 MSTORE PUSH1 0x24 PUSH0 REVERT JUMPDEST POP SWAP2 SWAP1 POP JUMP INVALID LOG2 PUSH5 0x6970667358 0x22 SLT KECCAK256 CALLCODE PUSH9 0x6576EAF51EA2A2511E CHAINID 0xD2 LOG1 ISZERO DUP5 0xE2 0xEE 0xDE DUP12 GASPRICE COINBASE 0xCC DUP3 REVERT EQ CREATE SHL DUP11 0xF6 0xC7 PUSH22 0x64736F6C634300081C00330000000000000000000000 "},"methodIdentifiers":{"builder()":"d7e84fbf","demoUrl()":"d002b55c","deployedAt()":"eae4c19f","networkName()":"107bf28c","projectName()":"9a33e300","repositoryUrl()":"c395f857"}}}}}