{
  "_format": "hh3-artifact-1",
  "contractName": "VeyraRegistry",
  "sourceName": "contracts/VeyraRegistry.sol",
  "abi": [
    {
      "inputs": [
        {
          "internalType": "string",
          "name": "_projectName",
          "type": "string"
        },
        {
          "internalType": "string",
          "name": "_demoUrl",
          "type": "string"
        },
        {
          "internalType": "string",
          "name": "_repositoryUrl",
          "type": "string"
        },
        {
          "internalType": "string",
          "name": "_networkName",
          "type": "string"
        }
      ],
      "stateMutability": "nonpayable",
      "type": "constructor"
    },
    {
      "anonymous": false,
      "inputs": [
        {
          "indexed": true,
          "internalType": "address",
          "name": "builder",
          "type": "address"
        },
        {
          "indexed": false,
          "internalType": "string",
          "name": "projectName",
          "type": "string"
        },
        {
          "indexed": false,
          "internalType": "string",
          "name": "demoUrl",
          "type": "string"
        },
        {
          "indexed": false,
          "internalType": "string",
          "name": "repositoryUrl",
          "type": "string"
        },
        {
          "indexed": false,
          "internalType": "string",
          "name": "networkName",
          "type": "string"
        },
        {
          "indexed": false,
          "internalType": "uint256",
          "name": "deployedAt",
          "type": "uint256"
        }
      ],
      "name": "VeyraRegistered",
      "type": "event"
    },
    {
      "inputs": [],
      "name": "builder",
      "outputs": [
        {
          "internalType": "address",
          "name": "",
          "type": "address"
        }
      ],
      "stateMutability": "view",
      "type": "function"
    },
    {
      "inputs": [],
      "name": "demoUrl",
      "outputs": [
        {
          "internalType": "string",
          "name": "",
          "type": "string"
        }
      ],
      "stateMutability": "view",
      "type": "function"
    },
    {
      "inputs": [],
      "name": "deployedAt",
      "outputs": [
        {
          "internalType": "uint256",
          "name": "",
          "type": "uint256"
        }
      ],
      "stateMutability": "view",
      "type": "function"
    },
    {
      "inputs": [],
      "name": "networkName",
      "outputs": [
        {
          "internalType": "string",
          "name": "",
          "type": "string"
        }
      ],
      "stateMutability": "view",
      "type": "function"
    },
    {
      "inputs": [],
      "name": "projectName",
      "outputs": [
        {
          "internalType": "string",
          "name": "",
          "type": "string"
        }
      ],
      "stateMutability": "view",
      "type": "function"
    },
    {
      "inputs": [],
      "name": "repositoryUrl",
      "outputs": [
        {
          "internalType": "string",
          "name": "",
          "type": "string"
        }
      ],
      "stateMutability": "view",
      "type": "function"
    }
  ],
  "bytecode": "0x60a060405234801561000f575f5ffd5b5060405161063438038061063483398101604081905261002e91610152565b336080525f61003d8582610291565b50600161004a8482610291565b5060026100578382610291565b5060036100648282610291565b5042600481905560405133917fceb8dced29853107455ec6f9a759a74881c3c3d622f76123f81366e117286b3a916100a491889188918891889190610379565b60405180910390a2505050506103d8565b634e487b7160e01b5f52604160045260245ffd5b5f82601f8301126100d8575f5ffd5b81516001600160401b038111156100f1576100f16100b5565b604051601f8201601f19908116603f011681016001600160401b038111828210171561011f5761011f6100b5565b604052818152838201602001851015610136575f5ffd5b8160208501602083015e5f918101602001919091529392505050565b5f5f5f5f60808587031215610165575f5ffd5b84516001600160401b0381111561017a575f5ffd5b610186878288016100c9565b602087015190955090506001600160401b038111156101a3575f5ffd5b6101af878288016100c9565b604087015190945090506001600160401b038111156101cc575f5ffd5b6101d8878288016100c9565b606087015190935090506001600160401b038111156101f5575f5ffd5b610201878288016100c9565b91505092959194509250565b600181811c9082168061022157607f821691505b60208210810361023f57634e487b7160e01b5f52602260045260245ffd5b50919050565b601f82111561028c57805f5260205f20601f840160051c8101602085101561026a5750805b601f840160051c820191505b81811015610289575f8155600101610276565b50505b505050565b81516001600160401b038111156102aa576102aa6100b5565b6102be816102b8845461020d565b84610245565b6020601f8211600181146102f0575f83156102d95750848201515b5f19600385901b1c1916600184901b178455610289565b5f84815260208120601f198516915b8281101561031f57878501518255602094850194600190920191016102ff565b508482101561033c57868401515f19600387901b60f8161c191681555b50505050600190811b01905550565b5f81518084528060208401602086015e5f602082860101526020601f19601f83011685010191505092915050565b60a081525f61038b60a083018861034b565b828103602084015261039d818861034b565b905082810360408401526103b1818761034b565b905082810360608401526103c5818661034b565b9150508260808301529695505050505050565b6080516102456103ef5f395f609f01526102455ff3fe608060405234801561000f575f5ffd5b5060043610610060575f3560e01c8063107bf28c146100645780639a33e30014610082578063c395f8571461008a578063d002b55c14610092578063d7e84fbf1461009a578063eae4c19f146100d9575b5f5ffd5b61006c6100f0565b60405161007991906101a2565b60405180910390f35b61006c61017c565b61006c610188565b61006c610195565b6100c17f000000000000000000000000000000000000000000000000000000000000000081565b6040516001600160a01b039091168152602001610079565b6100e260045481565b604051908152602001610079565b600380546100fd906101d7565b80601f0160208091040260200160405190810160405280929190818152602001828054610129906101d7565b80156101745780601f1061014b57610100808354040283529160200191610174565b820191905f5260205f20905b81548152906001019060200180831161015757829003601f168201915b505050505081565b5f80546100fd906101d7565b600280546100fd906101d7565b600180546100fd906101d7565b602081525f82518060208401528060208501604085015e5f604082850101526040601f19601f83011684010191505092915050565b600181811c908216806101eb57607f821691505b60208210810361020957634e487b7160e01b5f52602260045260245ffd5b5091905056fea2646970667358221220f2686576eaf51ea2a2511e46d2a11584e2eede8b3a41cc82fd14f01b8af6c77564736f6c634300081c0033",
  "linkReferences": {},
  "deployedLinkReferences": {},
  "immutableReferences": {
    "4": [
      {
        "length": 32,
        "start": 159
      }
    ]
  },
  "inputSourceName": "project/contracts/VeyraRegistry.sol",
  "buildInfoId": "solc-0_8_28-b0e9c7ccc85a977ba891b279846a98193607bdf1"
}